{
  "contractName": "DKoin",
  "abi": [
    {
      "inputs": [
        {
          "internalType": "uint256",
          "name": "totalSupply",
          "type": "uint256"
        }
      ],
      "payable": false,
      "stateMutability": "nonpayable",
      "type": "constructor"
    },
    {
      "anonymous": false,
      "inputs": [
        {
          "indexed": true,
          "internalType": "address",
          "name": "_owner",
          "type": "address"
        },
        {
          "indexed": true,
          "internalType": "address",
          "name": "_spender",
          "type": "address"
        },
        {
          "indexed": false,
          "internalType": "uint256",
          "name": "_value",
          "type": "uint256"
        }
      ],
      "name": "Approval",
      "type": "event"
    },
    {
      "anonymous": false,
      "inputs": [
        {
          "indexed": true,
          "internalType": "address",
          "name": "_from",
          "type": "address"
        },
        {
          "indexed": true,
          "internalType": "address",
          "name": "_to",
          "type": "address"
        },
        {
          "indexed": false,
          "internalType": "uint256",
          "name": "_value",
          "type": "uint256"
        }
      ],
      "name": "Transfer",
      "type": "event"
    },
    {
      "constant": true,
      "inputs": [],
      "name": "owner",
      "outputs": [
        {
          "internalType": "address",
          "name": "",
          "type": "address"
        }
      ],
      "payable": false,
      "stateMutability": "view",
      "type": "function"
    },
    {
      "constant": true,
      "inputs": [],
      "name": "totalSupply",
      "outputs": [
        {
          "internalType": "uint256",
          "name": "theTotalSupply",
          "type": "uint256"
        }
      ],
      "payable": false,
      "stateMutability": "view",
      "type": "function"
    },
    {
      "constant": true,
      "inputs": [
        {
          "internalType": "address",
          "name": "_owner",
          "type": "address"
        }
      ],
      "name": "balanceOf",
      "outputs": [
        {
          "internalType": "uint256",
          "name": "balance",
          "type": "uint256"
        }
      ],
      "payable": false,
      "stateMutability": "view",
      "type": "function"
    },
    {
      "constant": false,
      "inputs": [
        {
          "internalType": "address",
          "name": "_spender",
          "type": "address"
        },
        {
          "internalType": "uint256",
          "name": "_amount",
          "type": "uint256"
        }
      ],
      "name": "approve",
      "outputs": [
        {
          "internalType": "bool",
          "name": "success",
          "type": "bool"
        }
      ],
      "payable": false,
      "stateMutability": "nonpayable",
      "type": "function"
    },
    {
      "constant": false,
      "inputs": [
        {
          "internalType": "address",
          "name": "_to",
          "type": "address"
        },
        {
          "internalType": "uint256",
          "name": "_amount",
          "type": "uint256"
        }
      ],
      "name": "transfer",
      "outputs": [
        {
          "internalType": "bool",
          "name": "success",
          "type": "bool"
        }
      ],
      "payable": false,
      "stateMutability": "nonpayable",
      "type": "function"
    },
    {
      "constant": false,
      "inputs": [
        {
          "internalType": "address",
          "name": "_from",
          "type": "address"
        },
        {
          "internalType": "address",
          "name": "_to",
          "type": "address"
        },
        {
          "internalType": "uint256",
          "name": "_amount",
          "type": "uint256"
        }
      ],
      "name": "transferFrom",
      "outputs": [
        {
          "internalType": "bool",
          "name": "success",
          "type": "bool"
        }
      ],
      "payable": false,
      "stateMutability": "nonpayable",
      "type": "function"
    },
    {
      "constant": true,
      "inputs": [
        {
          "internalType": "address",
          "name": "_owner",
          "type": "address"
        },
        {
          "internalType": "address",
          "name": "_spender",
          "type": "address"
        }
      ],
      "name": "allowance",
      "outputs": [
        {
          "internalType": "uint256",
          "name": "remaining",
          "type": "uint256"
        }
      ],
      "payable": false,
      "stateMutability": "view",
      "type": "function"
    }
  ],
  "bytecode": "0x608060405234801561001057600080fd5b506040516109603803806109608339818101604052602081101561003357600080fd5b810190808051906020019092919050505080600281905550506109058061005b6000396000f3fe608060405234801561001057600080fd5b506004361061007d5760003560e01c806370a082311161005b57806370a082311461018c5780638da5cb5b146101e4578063a9059cbb1461022e578063dd62ed3e146102945761007d565b8063095ea7b31461008257806318160ddd146100e857806323b872dd14610106575b600080fd5b6100ce6004803603604081101561009857600080fd5b81019080803573ffffffffffffffffffffffffffffffffffffffff1690602001909291908035906020019092919050505061030c565b604051808215151515815260200191505060405180910390f35b6100f06103fe565b6040518082815260200191505060405180910390f35b6101726004803603606081101561011c57600080fd5b81019080803573ffffffffffffffffffffffffffffffffffffffff169060200190929190803573ffffffffffffffffffffffffffffffffffffffff1690602001909291908035906020019092919050505061040b565b604051808215151515815260200191505060405180910390f35b6101ce600480360360208110156101a257600080fd5b81019080803573ffffffffffffffffffffffffffffffffffffffff169060200190929190505050610683565b6040518082815260200191505060405180910390f35b6101ec6106cb565b604051808273ffffffffffffffffffffffffffffffffffffffff1673ffffffffffffffffffffffffffffffffffffffff16815260200191505060405180910390f35b61027a6004803603604081101561024457600080fd5b81019080803573ffffffffffffffffffffffffffffffffffffffff169060200190929190803590602001909291905050506106f1565b604051808215151515815260200191505060405180910390f35b6102f6600480360360408110156102aa57600080fd5b81019080803573ffffffffffffffffffffffffffffffffffffffff169060200190929190803573ffffffffffffffffffffffffffffffffffffffff169060200190929190505050610849565b6040518082815260200191505060405180910390f35b600081600160003373ffffffffffffffffffffffffffffffffffffffff1673ffffffffffffffffffffffffffffffffffffffff16815260200190815260200160002060008573ffffffffffffffffffffffffffffffffffffffff1673ffffffffffffffffffffffffffffffffffffffff168152602001908152602001600020819055508273ffffffffffffffffffffffffffffffffffffffff163373ffffffffffffffffffffffffffffffffffffffff167f8c5be1e5ebec7d5bd14f71427d1e84f3dd0314c0f7b2291e5b200ac8c7c3b925846040518082815260200191505060405180910390a36001905092915050565b6000600254905080905090565b6000816000808673ffffffffffffffffffffffffffffffffffffffff1673ffffffffffffffffffffffffffffffffffffffff16815260200190815260200160002054101580156104d7575081600160008673ffffffffffffffffffffffffffffffffffffffff1673ffffffffffffffffffffffffffffffffffffffff16815260200190815260200160002060003373ffffffffffffffffffffffffffffffffffffffff1673ffffffffffffffffffffffffffffffffffffffff1681526020019081526020016000205410155b80156104e35750600082115b801561056c57506000808473ffffffffffffffffffffffffffffffffffffffff1673ffffffffffffffffffffffffffffffffffffffff16815260200190815260200160002054826000808673ffffffffffffffffffffffffffffffffffffffff1673ffffffffffffffffffffffffffffffffffffffff1681526020019081526020016000205401115b1561067757816000808673ffffffffffffffffffffffffffffffffffffffff1673ffffffffffffffffffffffffffffffffffffffff16815260200190815260200160002060008282540392505081905550816000808573ffffffffffffffffffffffffffffffffffffffff1673ffffffffffffffffffffffffffffffffffffffff168152602001908152602001600020600082825401925050819055508273ffffffffffffffffffffffffffffffffffffffff168473ffffffffffffffffffffffffffffffffffffffff167fddf252ad1be2c89b69c2b068fc378daa952ba7f163c4a11628f55a4df523b3ef846040518082815260200191505060405180910390a36001905061067c565b600090505b9392505050565b60008060008373ffffffffffffffffffffffffffffffffffffffff1673ffffffffffffffffffffffffffffffffffffffff168152602001908152602001600020549050919050565b600360009054906101000a900473ffffffffffffffffffffffffffffffffffffffff1681565b6000816000803373ffffffffffffffffffffffffffffffffffffffff1673ffffffffffffffffffffffffffffffffffffffff168152602001908152602001600020541061083e57816000803373ffffffffffffffffffffffffffffffffffffffff1673ffffffffffffffffffffffffffffffffffffffff16815260200190815260200160002060008282540392505081905550816000808573ffffffffffffffffffffffffffffffffffffffff1673ffffffffffffffffffffffffffffffffffffffff168152602001908152602001600020600082825401925050819055508273ffffffffffffffffffffffffffffffffffffffff163373ffffffffffffffffffffffffffffffffffffffff167fddf252ad1be2c89b69c2b068fc378daa952ba7f163c4a11628f55a4df523b3ef846040518082815260200191505060405180910390a360019050610843565b600090505b92915050565b6000600160008473ffffffffffffffffffffffffffffffffffffffff1673ffffffffffffffffffffffffffffffffffffffff16815260200190815260200160002060008373ffffffffffffffffffffffffffffffffffffffff1673ffffffffffffffffffffffffffffffffffffffff1681526020019081526020016000205490509291505056fea265627a7a723158204b5b71769752c487ccc6d22499b256d1ac53d44c592b9bdf1e1798cc15d9548164736f6c63430005100032",
  "source": "// SPDX-License-Identifier: MIT\r\npragma solidity >=0.4.22 <0.9.0;\r\n\r\n  \r\n// Creating a Contract \r\ncontract DKoin \r\n{ \r\n   constructor(uint256 totalSupply) public {                   \r\n      _totalSupply = totalSupply;\r\n    }  \r\n// Table to map addresses  \r\n// to their balance \r\nmapping(address => uint256) balances; \r\n  \r\n// Mapping owner address to  \r\n// those who are allowed to  \r\n// use the contract \r\nmapping(address => mapping ( \r\n        address => uint256)) allowed; \r\n  \r\n// totalSupply \r\nuint256 _totalSupply;  \r\n  \r\n// owner address \r\naddress public owner;  \r\n  \r\n// Triggered whenever  \r\n// approve(address _spender, uint256 _value)  \r\n// is called. \r\n event Approval(address indexed _owner,  \r\n                address indexed _spender,  \r\n                uint256 _value); \r\n  \r\n// Event triggered when  \r\n// tokens are transferred. \r\nevent Transfer(address indexed _from,  \r\n               address indexed _to,  \r\n               uint256 _value); \r\n  \r\n// totalSupply function \r\nfunction totalSupply()  \r\n         public view returns ( \r\n         uint256 theTotalSupply)  \r\n{ \r\n   theTotalSupply = _totalSupply; \r\n   return theTotalSupply; \r\n } \r\n  \r\n// balanceOf function \r\nfunction balanceOf(address _owner)  \r\n         public view returns ( \r\n         uint256 balance)  \r\n{ \r\n   return balances[_owner]; \r\n } \r\n  \r\n// function approve \r\nfunction approve(address _spender,  \r\n                 uint256 _amount)  \r\n                 public returns (bool success)  \r\n{ \r\n    // If the adress is allowed  \r\n    // to spend from this contract \r\n   allowed[msg.sender][_spender] = _amount; \r\n     \r\n   // Fire the event \"Approval\"  \r\n   // to execute any logic that  \r\n   // was listening to it \r\n   emit Approval(msg.sender,  \r\n                 _spender, _amount); \r\n   return true; \r\n } \r\n  \r\n// transfer function \r\nfunction transfer(address _to,  \r\n                  uint256 _amount)  \r\n                  public returns (bool success)  \r\n{ \r\n    // transfers the value if  \r\n    // balance of sender is  \r\n    // greater than the amount \r\n    if (balances[msg.sender] >= _amount)  \r\n    { \r\n         balances[msg.sender] -= _amount; \r\n         balances[_to] += _amount; \r\n           \r\n         // Fire a transfer event for  \r\n         // any logic that is listening  \r\n        emit Transfer(msg.sender, \r\n                      _to, _amount); \r\n            return true; \r\n    }  \r\n    else \r\n    { \r\n        return false; \r\n    } \r\n} \r\n  \r\n  \r\n/* The transferFrom method is used for  \r\n   a withdraw workflow, allowing  \r\n   contracts to send tokens on  \r\n   your behalf, for example to  \r\n   \"deposit\" to a contract address  \r\n   and/or to charge fees in sub-currencies;*/\r\nfunction transferFrom(address _from,  \r\n                      address _to, \r\n                      uint256 _amount)  \r\n                      public returns (bool success)  \r\n{ \r\n   if (balances[_from] >= _amount &&  \r\n       allowed[_from][msg.sender] >=  \r\n       _amount && _amount > 0 && \r\n       balances[_to] + _amount > balances[_to])  \r\n   { \r\n        balances[_from] -= _amount; \r\n        balances[_to] += _amount; \r\n          \r\n        // Fire a Transfer event for  \r\n        // any logic that is listening \r\n        emit Transfer(_from, _to, _amount);  \r\n     return true; \r\n  \r\n   }  \r\n   else \r\n   { \r\n     return false; \r\n   } \r\n } \r\n  \r\n// Check if address is allowed  \r\n// to spend on the owner's behalf \r\nfunction allowance(address _owner,  \r\n                   address _spender)  \r\n                   public view returns (uint256 remaining)  \r\n{ \r\n   return allowed[_owner][_spender]; \r\n } \r\n}",
  "sourcePath": "C:/Users/dk95g/Desktop/token_sale/contracts/DKoin.sol",
  "compiler": {
    "name": "solc",
    "version": "0.5.16+commit.9c3226ce.Emscripten.clang"
  },
  "schemaVersion": "3.3.3",
  "updatedAt": "2021-01-23T22:01:25.397Z",
  "networkType": "ethereum",
  "devdoc": {
    "methods": {}
  },
  "userdoc": {
    "methods": {}
  }
}